{"abi":[{"type":"constructor","inputs":[{"name":"_g2Generator","type":"bytes","internalType":"bytes"}],"stateMutability":"nonpayable"},{"type":"function","name":"g2Generator","inputs":[],"outputs":[{"name":"","type":"bytes","internalType":"bytes"}],"stateMutability":"view"},{"type":"function","name":"verifyMultipointProof","inputs":[{"name":"negCommitmentMinusITau","type":"bytes","internalType":"bytes"},{"name":"zValues","type":"bytes32[]","internalType":"bytes32[]"},{"name":"yValues","type":"bytes32[]","internalType":"bytes32[]"},{"name":"proof","type":"bytes","internalType":"bytes"},{"name":"zCommit","type":"bytes","internalType":"bytes"}],"outputs":[{"name":"","type":"bool","internalType":"bool"}],"stateMutability":"view"}],"bytecode":{"object":"0x60806040523461024e57610c3e8038038061001981610252565b92833981019060208183031261024e578051906001600160401b03821161024e570181601f8201121561024e578051906001600160401b0382116101e95761006a601f8301601f1916602001610252565b928284526020838301011161024e57815f9260208093018386015e8301015260c08151036101fd5780516001600160401b0381116101e9575f54600181811c911680156101df575b60208210146101cb57601f8111610169575b50602091601f821160011461010b579181925f92610100575b50508160011b915f199060031b1c1916175f555b6040516109c690816102788239f35b015190505f806100dd565b601f198216925f8052805f20915f5b85811061015157508360019510610139575b505050811b015f556100f1565b01515f1960f88460031b161c191690555f808061012c565b9192602060018192868501518155019401920161011a565b5f80527f290decd9548b62a8d60345a988386fc84ba6bc95484008f6362f93160ef3e563601f830160051c810191602084106101c1575b601f0160051c01905b8181106101b657506100c4565b5f81556001016101a9565b90915081906101a0565b634e487b7160e01b5f52602260045260245ffd5b90607f16906100b2565b634e487b7160e01b5f52604160045260245ffd5b60405162461bcd60e51b815260206004820152602360248201527f4b5a473a2047322067656e657261746f72206d7573742062652031393220627960448201526274657360e81b6064820152608490fd5b5f80fd5b6040519190601f01601f191682016001600160401b038111838210176101e95760405256fe60806040526004361015610011575f80fd5b5f3560e01c8063a97b3db3146100345763f249abbf1461002f575f80fd5b6101ee565b3461007c575f36600319011261007c57602060406100506100bb565b815192839181835280519182918282860152018484015e5f828201840152601f01601f19168101030190f35b5f80fd5b634e487b7160e01b5f52604160045260245ffd5b90601f8019910116810190811067ffffffffffffffff8211176100b657604052565b610080565b604051905f80548060011c91600182168015610185575b60208410811461017157838652859260208401919081156101585750600114610105575b5061010392500383610094565b565b5f80805291507f290decd9548b62a8d60345a988386fc84ba6bc95484008f6362f93160ef3e5635b84831061014157506101039350015f6100f6565b80548284015286935060209092019160010161012d565b60ff191682525061010393151560051b0190505f6100f6565b634e487b7160e01b5f52602260045260245ffd5b92607f16926100d2565b9181601f8401121561007c5782359167ffffffffffffffff831161007c576020838186019501011161007c57565b9181601f8401121561007c5782359167ffffffffffffffff831161007c576020808501948460051b01011161007c57565b3461007c5760a036600319011261007c5760043567ffffffffffffffff811161007c5761021f90369060040161018f565b60243567ffffffffffffffff811161007c5761023f9036906004016101bd565b91909260443567ffffffffffffffff811161007c576102629036906004016101bd565b9060643567ffffffffffffffff811161007c5761028390369060040161018f565b9290916084359667ffffffffffffffff881161007c576102c8986102ae6102b699369060040161018f565b9890976106d6565b60405190151581529081906020820190565b0390f35b156102d357565b60405162461bcd60e51b815260206004820152602860248201527f4b5a473a207a56616c75657320616e64207956616c756573206c656e677468206044820152670dad2e6dac2e8c6d60c31b6064820152608490fd5b1561033057565b60405162461bcd60e51b815260206004820152601d60248201527f4b5a473a20696e76616c6964206e756d626572206f6620706f696e74730000006044820152606490fd5b1561037c57565b60405162461bcd60e51b815260206004820152603b60248201527f4b5a473a206e6567436f6d6d69746d656e744d696e757349546175206d75737460448201527f20626520756e636f6d70726573736564202839362062797465732900000000006064820152608490fd5b156103ee57565b60405162461bcd60e51b815260206004820152602b60248201527f4b5a473a2070726f6f66206d75737420626520756e636f6d707265737365642060448201526a283139322062797465732960a81b6064820152608490fd5b1561044e57565b60405162461bcd60e51b815260206004820152602c60248201527f4b5a473a207a436f6d6d6974206d75737420626520756e636f6d70726573736560448201526b64202839362062797465732960a01b6064820152608490fd5b67ffffffffffffffff81116100b657601f01601f191660200190565b9291926104d0826104a8565b916104de6040519384610094565b82948184528183011161007c578281602093845f960137010152565b1561050157565b60405162461bcd60e51b815260206004820152601d60248201527f496e76616c696420706164646564205a436f6d6d6974206c656e6774680000006044820152606490fd5b1561054d57565b60405162461bcd60e51b815260206004820152601b60248201527f496e76616c6964207061646465642070726f6f66206c656e67746800000000006044820152606490fd5b1561059957565b60405162461bcd60e51b815260206004820152602c60248201527f496e76616c696420706164646564206e6567436f6d6d69746d656e744d696e7560448201526b0e692a8c2ea40d8cadccee8d60a31b6064820152608490fd5b156105fa57565b60405162461bcd60e51b815260206004820152602160248201527f496e76616c69642070616464656420473247656e657261746f72206c656e67746044820152600d60fb1b6064820152608490fd5b805191908290602001825e015f815290565b1561066257565b60405162461bcd60e51b815260206004820152601c60248201527f496e76616c69642070616972696e6720696e707574206c656e677468000000006044820152606490fd5b3d156106d1573d906106b8826104a8565b916106c66040519384610094565b82523d5f602084013e565b606090565b819450610763925061075b6107566107bc9861074e6107495f9e9d8f9e6107368f60c0906107d09f60606107c29f9d61072a6107499f61071a6107309582146102cc565b801515908161080d575b50610329565b14610375565b146103e7565b61074260608214610447565b36916104c4565b61084e565b9a36916104c4565b610926565b9436916104c4565b6107bc6107716107566100bb565b9161077f60808951146104fa565b61078d610100865114610546565b61079a6080825114610592565b6107a86101008451146105f3565b6040519687956107bc60208801809b610649565b90610649565b03601f198101835282610094565b6107de61030082511461065b565b5190600f5afa6107ec6106a7565b9015610808576020815103610808576020015160ff1660011490565b505f90565b6080915011155f610724565b604051610100919061012061082e8183610094565b83825267ffffffffffffffff8294116100b657601f190190369060200137565b6060815103610897576040519060a0906108688284610094565b60808352606091601f190136602085013760208101516030840152604081015160408401520151607082015290565b606460405162461bcd60e51b815260206004820152602060248201527f496e76616c696420756e70616464656420473120706f696e74206c656e6774686044820152fd5b156108e257565b606460405162461bcd60e51b815260206004820152602060248201527f496e76616c696420756e70616464656420473220706f696e74206c656e6774686044820152fd5b61093360c08251146108db565b61010061093e610819565b916020810151603084015260408101516040840152606081015160708401526080810151608084015260a081015160b084015260c081015160c084015260e081015160f084015201516101008201529056fea26469706673582212203f284cf59524e7b3ae1ddc199b8a63927caa69bf21d3f06b5a1cfaa260e8752e64736f6c634300081a0033","linkReferences":{}},"methodIdentifiers":{"g2Generator()":"a97b3db3","verifyMultipointProof(bytes,bytes32[],bytes32[],bytes,bytes)":"f249abbf"},"id":19}