{"abi":[{"type":"function","name":"g1Add","inputs":[{"name":"input","type":"bytes","internalType":"bytes"}],"outputs":[{"name":"","type":"bytes","internalType":"bytes"}],"stateMutability":"view"},{"type":"function","name":"g1Msm","inputs":[{"name":"input","type":"bytes","internalType":"bytes"}],"outputs":[{"name":"","type":"bytes","internalType":"bytes"}],"stateMutability":"view"},{"type":"function","name":"g2Msm","inputs":[{"name":"input","type":"bytes","internalType":"bytes"}],"outputs":[{"name":"","type":"bytes","internalType":"bytes"}],"stateMutability":"view"},{"type":"function","name":"pairing","inputs":[{"name":"input","type":"bytes","internalType":"bytes"}],"outputs":[{"name":"","type":"bytes","internalType":"bytes"}],"stateMutability":"view"}],"bytecode":{"object":"0x608080604052346015576103a3908161001a8239f35b5f80fdfe60806040526004361015610011575f80fd5b5f3560e01c80636135779b146101645780637e3c6e5b1461013e578063e4694b7d146100c65763f10b9fcf14610045575f80fd5b346100c2575f806100553661017e565b908160405192839283378101838152039060095afa6100726101f9565b901561008c5761008890604051918291826101cf565b0390f35b60405162461bcd60e51b815260206004820152600e60248201526d14185a5c9a5b99c819985a5b195960921b6044820152606490fd5b5f80fd5b346100c2575f806100d63661017e565b9081604051928392833781018381520390600b5afa6100f36101f9565b90156101095761008890604051918291826101cf565b60405162461bcd60e51b815260206004820152600d60248201526c11cc481059190819985a5b1959609a1b6044820152606490fd5b346100c2576100886101586101523661017e565b906102e7565b604051918291826101cf565b346100c2576100886101586101783661017e565b9061025e565b9060206003198301126100c25760043567ffffffffffffffff81116100c257826023820112156100c25780600401359267ffffffffffffffff84116100c257602484830101116100c2576024019190565b602060409281835280519182918282860152018484015e5f828201840152601f01601f1916010190565b3d15610259573d9067ffffffffffffffff82116102455760405191601f8101601f19908116603f0116830167ffffffffffffffff8111848210176102455760405282523d5f602084013e565b634e487b7160e01b5f52604160045260245ffd5b606090565b5f91829181604051928392833781018381520390600c5afa61027e6101f9565b906102e45760405162461bcd60e51b815260206004820152603360248201527f4731204d534d20707265636f6d70696c65206e6f7420617661696c61626c65206044820152721a5b881d195cdd08195b9d9a5c9bdb9b595b9d606a1b6064820152608490fd5b90565b5f91829181604051928392833781018381520390600e5afa6103076101f9565b906102e45760405162461bcd60e51b815260206004820152603360248201527f4732204d534d20707265636f6d70696c65206e6f7420617661696c61626c65206044820152721a5b881d195cdd08195b9d9a5c9bdb9b595b9d606a1b6064820152608490fdfea2646970667358221220e47c7cef3ff6ea8720e870b453c0e8f9af539b0ae8fb37f91d8b1f53cccc7e5564736f6c634300081a0033","linkReferences":{}},"methodIdentifiers":{"g1Add(bytes)":"e4694b7d","g1Msm(bytes)":"6135779b","g2Msm(bytes)":"7e3c6e5b","pairing(bytes)":"f10b9fcf"},"id":20}